:020000040800F2
:1000000050040020E10100082F140008AD1300087F
:100010002D1400083D070008131700080000000019
:100020000000000000000000000000003314000881
:100030003F070008000000003114000835140008D4
:10004000FB010008FB010008FB010008FB010008A0
:10005000FB010008FB010008FB010008FB01000890
:10006000FB010008FB010008FB010008FB01000880
:10007000FB010008FB010008FB010008FB01000870
:10008000FB010008FB010008FB0100080000000064
:10009000000000000000000000000000FB0100085C
:1000A000FB010008FB010008FB010008FB01000840
:1000B000000000000000000000000000FB0100083C
:1000C000FB010008FB010008FB010008FB01000820
:1000D000FB010008FB010008FB0100080000000014
:1000E000FB010008FB010008000000000000000008
:1000F000000000000000000000000000FB010008FC
:100100000000000000000000D914000800000000FA
:100110000000000000000000FB01000800000000DB
:10012000FB010008FB010008FB010008FB010008BF
:10013000FB010008000000000000000000000000BB
:1001400000000000000000000000000000000000AF
:10015000FB010008FB010008FB010008FB0100088F
:10016000000000000000000000000000000000008F
:10017000000000000000000000000000000000007F
:10018000FB010008FB010008000000000000000067
:1001900000000000FB01000800000000000000005B
:1001A000000000000000000000000000000000004F
:1001B000000000000000000000000000FB0100083B
:1001C000FB010008FB010008DFF810D000F0A4FAE2
:1001D0000048004755170008AFF300805004002086
:1001E0000648804706480047FEE7FEE7FEE7FEE7D1
:1001F000FEE7FEE7FEE7FEE7FEE7FEE7BD140008C8
:10020000C90100082DE9F05F0546002092469B4693
:1002100088460646814640241BE02846414647461C
:10022000224600F0F9F953465A46C01A914110D3BC
:1002300011461846224600F0E0F92D1A67EB010836
:100240004F4622460120002100F0D7F917EB0009A4
:100250004E41201EA4F10104DFDC484631462A4607
:100260004346BDE8F09FD2B201E000F8012B491EE1
:10027000FBD270470022F6E710B513460A46044643
:100280001946FFF7F0FF204610BD2DE9FE4F8046CE
:1002900081EA0300C00F0C46009021F0004123F0DA
:1002A0000045B8EB0200A94105D2404621469046E0
:1002B0001C460B46024623F00040104347D0270D52
:1002C000C7F30A00C3F30A510290401A0190402874
:1002D0006BDAC3F3130040F4801B0098924620B100
:1002E0000023D2EB030A63EB0B0B01985946C0F1D4
:1002F0004002504600F081F906460D4650465946E8
:10030000019A00F099F910EB08006141002487EA96
:10031000115284EAE7731A4340D0009A62B3019AFB
:10032000012A4FEA075215DC001B61EB02014FF076
:10033000004202EA0752CDE90042001C41F580115B
:1003400032462B4600F099F903B0BDE8F08F4046E5
:100350002146F9E7001B61EB0201001C41F5801307
:1003600000185B412018A2F5001747EB030140EA93
:10037000D570B6196D4111E06D084FEA360645EAB1
:10038000C0754FEA0752001B61EB0201001C41F5EA
:10039000801149084FEA30000019514132462B467E
:1003A00003B0BDE8F04F00F059B9009801224000B9
:1003B0000023D0EB020263EBE073009821464FEA82
:1003C000E074B8EB000061EB0401E9E783F000435F
:1003D0005BE781F0004158E72DE9FE4F81EA030415
:1003E00004F0004421F0004100944FF0000B23F092
:1003F000004350EA01045ED052EA03045BD0C3F329
:100400000A54C1F30A552C44A4F2F3340194A0FB1E
:100410000254C1F3130141F48011C3F3130343F4F5
:10042000801301FB024400FB034E840A970A44EA4E
:10043000815447EA8357A4FB076802958D0A05FBA0
:1004400007854FEA932C04FB0C542705029D4FEAC5
:10045000065847EA1637B5EB08056EEB070C870E12
:10046000920E47EA811742EA8312A7FB0201B6EB1C
:100470000B0164EB00042B0D43EA0C335E1844EBD4
:100480001C50DA465146E7FB0201C5F313044FEA5C
:100490000B3343EA14534FEA0432019C43EA060348
:1004A000A4F10C040294009CCDE900B400F0E5F83E
:1004B00003B0BDE8F08F00200146F9E72DE9F04DCB
:1004C00081EA030404F0004B21F0004514464FF08C
:1004D000000A23F0004150EA050220D054EA01024C
:1004E0001DD0C5F30A570246C5F31303C1F3130029
:1004F000C1F30A5640F4801543F48013A7EB0608B5
:10050000101BD64608F2FD3873EB050002D308F144
:10051000010801E092185B41B8F1000F03DA0020F6
:100520000146BDE8F08D00204FF480110646844658
:100530000EE0171B73EB050705D3121B63EB0503D6
:1005400006434CEA010C49084FEA300092185B411F
:1005500050EA0107EDD152EA030012D082EA04000A
:1005600083EA0501084305D0101BAB4106D20122E6
:10057000002306E000224FF0004302E06FF001028A
:1005800053101AEB06004CEB085110EB0A0041EB3C
:100590000B01BDE8F04D00F061B80EB5C10F80EA67
:1005A000E0700844CA07002140F233438DE80E0092
:1005B0000A460B4600F061F803B000BD70B5C1F308
:1005C0000A5201F000450024C1F3130140F2FF3349
:1005D00041F480119A4201DA002070BD40F23343A9
:1005E0009A42A2F2334203DC524200F015F800E0D6
:1005F00090402C43F1D0404270BD202A04DB203AC9
:1006000000FA02F1002070479140C2F1200320FA65
:1006100003F3194390407047202A04DB203A21FA63
:1006200002F00021704721FA02F3D040C2F120020B
:100630009140084319467047202A06DBCB17203A21
:1006400041FA02F043EAE07306E041FA02F3D040D7
:10065000C2F12002914008431946704710B5141E9C
:1006600073F1000408DA401C41F1000192185B416B
:100670001A4301D120F0010010BD2DE9F04D924642
:100680009B4611B1B1FA81F202E0B0FA80F2203259
:100690009046FFF7B2FF04460F4640EA0A0041EADF
:1006A0000B0153465A46084313D0114653EA010042
:1006B00019D0C8F140025046FFF7AEFF05460E467E
:1006C000504659464246FFF798FF084305D001209F
:1006D00004E020463946BDE8F08D0020054346EA97
:1006E000E0762C4337430A986305E40AA0EB080040
:1006F0000022FD0A44EA47540A3002D50020014690
:10070000E9E7010510196941DDE90845001969416A
:10071000BDE8F04DA2E70000064C074D06E0E0689A
:1007200040F0010394E8070098471034AC42F6D338
:10073000FFF74EFD5018000870180008FEE77047DC
:1007400070B5044600F0C6F80546601C02D00448A7
:100750000078044400F0BEF8401BA042FAD370BDFC
:10076000000000202DE9F84F00224FF0010803257A
:100770004FF00F0E0B6808FA02F42340A3426ED12B
:100780004E68012E05D0022E03D0112E01D0122E5C
:1007900012D186684FEA420C05FA0CF7BE43CF68C7
:1007A00007FA0CF7374387604668A6430C79C4F311
:1007B0000014944034434460C668570005FA07FCAF
:1007C0008C6826EA0C06BC403443C4604C68022C9A
:1007D00001D0122C13D1D40800EB8404A346D4F822
:1007E000209054074FEAD46A0EFA0AF629EA06095D
:1007F0000E6906FA0AF646EA0906CBF82060046894
:100800000E7924EA0C0406F00306BE402643066077
:100810004C68E4004CD5294C266846F48046266096
:10082000246822F0030604F480440094244C3444E9
:10083000A446D4F808489607370F0EFA07F6B443D3
:10084000204EB04201D100260BE01F4EB04201D134
:10085000012606E01D4EB04202D1022601E027E04B
:100860000726BE402643CCF80868194E34684F6806
:100870009C43FF0300D51C433460154E361D34687D
:100880004F689C43BF0300D51C433460104E0836AC
:1008900034684F689C43FF0200D51C4334600C4E03
:1008A0000C3634684F689C43BF0200D51C4334604B
:1008B000521C102AFFF45EAFBDE8F88F44380240A6
:1008C00000300140000002400004024000080240E5
:1008D000003C014001488068704700000000002093
:1008E000024881680278114481607047000000204E
:1008F0000B4810B5016841F400710160016841F4D2
:1009000080610160016841F480710160032000F0A2
:1009100071F8002000F006F800F024F8002010BD67
:10092000003C024070B50D4D04464FF47A712878B2
:10093000B1FBF0F00A490968B1FBF0F000F0C8FA29
:1009400048B9102C07D200222146501E00F032F880
:1009500000206C6070BD012070BD00000000002010
:100960000C0000200B4882B0016841F48041016016
:10097000006800F4804000900648001F016841F0C4
:1009800080510160006800F080500090072002B0A4
:1009900000F030B844380240002809DB00F01F02A4
:1009A000012191404009800000F1E020C0F80011D1
:1009B00070470000F0B40E4B1B680C46C3F30223D3
:1009C000C3F10705042D00D90425191D072901D2FB
:1009D000002300E0DB1E012606FA05F1491E214036
:1009E00099409E40761E16403143F0BC00F092BE06
:1009F0000CED00E0064900F0070208684FF6FF031F
:100A0000184040EA0220034A104308607047000083
:100A10000CED00E00000FA052DE9F0470E46050058
:100A200065D0DFF81481D8F80000F7B200F00F00AD
:100A3000B04207D288F80070D8F8000000F00F002C
:100A4000B04254D128683D4C810712D5400703D5E8
:100A5000206840F4E05020602878000703D5206823
:100A600040F4604020602068A96820F0F00008434E
:100A700020602878C0072DD03049686808390128DF
:100A800012D0022813D0032811D009688907002941
:100A90002DDA216821F0030101432160FFF71AFFDD
:100AA000814641F2883A0EE009688903EFE7096858
:100AB0008901ECE7FFF70EFFA0EB0901514502D9D0
:100AC0000320BDE8F0872068696800F00C00B0EBF7
:100AD000810FEFD1D8F80010404601F00F01B1426C
:100AE00007D90770006800F00F00B04201D0012064
:100AF000E7E72878400705D52068E96820F4E0504A
:100B0000084320602878000706D52068296920F46A
:100B1000604040EAC100206000F018F82168084AEF
:100B2000C1F30311515CC8400649086006480068DB
:100B3000FFF7F8FE0020C4E7003C024008380240FE
:100B4000401800080C00002004000020154810B5D3
:100B5000006810F00C02144813D04110042A0FD082
:100B6000082A0ED10F4C241F2268236802F03F028E
:100B70005B0207D52068C0F38810A0FB010106E0E6
:100B8000084610BD2168C1F38811A1FB00010023B4
:100B9000FFF738FB2168C1F30141491C4900B0FB54
:100BA000F1F010BD083802400024F4002DE9F84FA0
:100BB00005460078DFF800B3C04CC0074AD0DBF828
:100BC00000105846C1F38101012908D00068C0F324
:100BD000810002280AD1201D0068400206D5206845
:100BE000800337D56868002872D033E06868B0F5B4
:100BF000803F10D0B0F5A02F206810D020F48030B6
:100C00002060206820F4802020606868A8B1FFF789
:100C100061FE06460DE0206840F48030F4E740F4C1
:100C200080202060F7E700BFFFF754FE801B642898
:100C30006FD820688003F7D50CE0FFF74BFE06461F
:100C400005E000BFFFF746FE801B6428F0D820684F
:100C50008003F7D42878DFF8688280074FF0000916
:100C600040D5DBF80010584611F00C0F09D0006891
:100C7000C0F3810002280BD18F48001F006840029A
:100C800006D42068800715D5E868012820D111E036
:100C9000E868B8B10120C8F80000FFF71BFE06465F
:100CA00005E000BFFFF716FE801B0228C0D82068B1
:100CB0008007F7D52068296920F0F80040EAC100D4
:100CC00020600FE0C8F80090FFF704FE064606E03B
:100CD000EFE000BFFFF7FEFD801B022819D8206857
:100CE0008007F7D42878000722D5734E75486969C4
:100CF0006C3679B101210160FFF7ECFD074604E095
:100D0000FFF7E8FDC01B022803D830688007F7D53D
:100D10000EE089E0C0F80090FFF7DCFD074604E034
:100D2000FFF7D8FDC01B02287ED830688007F7D4B3
:100D30002878400768D5DFF880A100270AF1380A33
:100D4000DAF80000C0000BD4DAF8001041F080514E
:100D5000CAF80010DAF80000012700F08050009077
:100D6000594E3068C00510D4306840F4807030604F
:100D7000FFF7B0FD009005E0FFF7ACFD0099401AC9
:100D8000022851D83068C005F6D54B4EA8686836A1
:100D900001280FD00528306810D020F00100306005
:100DA000306820F004003060A868B8B1FFF792FD09
:100DB00000900FE0306840F00100F4E740F00400DC
:100DC0003060F7E7FFF786FD0099411A41F288305D
:100DD000814266D830688007F4D50EE0FFF77AFDCF
:100DE000009007E0FFF776FD0099411A41F2883044
:100DF000814256D830688007F4D42FB1DAF8001059
:100E000021F08051CAF80010A869D0B3DBF80010B7
:100E1000C1F3810102294CD00228484607D0C8F806
:100E20006000FFF757FD00E03BE005463CE0474629
:100E3000C8F86000FFF74EFD064604E0FFF74AFDE4
:100E4000801B02282DD820688001F7D4F5E907011E
:100E50000843E9681D4A490802EB0141AA6841EAD2
:100E600082110843297C40EA0160297D40EA017132
:100E70001148001F016001203866FFF72BFD054671
:100E800005E014E0FFF726FD401B022809D8206882
:100E90008001F7D50BE000BFFFF71CFD401B0228C7
:100EA00002D90320BDE8F88F20688001F4D4002027
:100EB000F8E70120F6E70000083802400038024059
:100EC00000004742800E4742007000400000FFFFD4
:100ED00010B5401EB0F1807F01D3012010BD4FF04E
:100EE000E02460610F21601700F014FC0020A06175
:100EF00007202061002010BD7047704770B590F842
:100F00003C20012A23D0012480F83C40022280F8B2
:100F10003D2003685A689D6822F070060A683243D3
:100F20005A600C4B02689A4205D00B4B9A4202D091
:100F30000A4B9A4204D1496825F080031943916015
:100F400080F83D40002180F83C10084670BD02202A
:100F500070BD000000000140000C00400040014056
:100F600010B5040003D094F83D0010B107E0012053
:100F700010BD002084F83C00204600F00DF802204F
:100F800084F83D00211D206800F0ACFA012084F8AF
:100F90003D00002010BD000008B500680B498842E4
:100FA00012D10B48016841F008010160006800227D
:100FB00000F00800009011463220FFF7FBFCBDE86E
:100FC00008403220FFF7E8BC08BD0000000C0040DC
:100FD0004038024070B5044690F83C00012817D014
:100FE000012584F83C50022084F83D002068826886
:100FF00022F0770222F47F4282600868502830D0C5
:101000000DDC20284DD005DC98B310283BD148E0FA
:10101000022070BD302844D0402834D139E0602807
:1010200028D0702806D0B0F5805F2CD0B0F5005FD6
:1010300029D10AE0CB68D1E90121206800F091FABA
:101040002068816841F0770109E0CB68D1E901218E
:10105000206800F086FA2068816841F48041816050
:1010600011E0CA684968206800F030FB5021206810
:1010700007E016E0CA684968206800F038FB602184
:10108000206800F078FA84F83D50002084F83C0095
:1010900070BDCA684968206800F018FB40212068CC
:1010A000EFE7226801461046EBE7704770B504464B
:1010B000006801694FF00005C943890715D4C1686C
:1010C000C943890711D4E91E0161012020772068F6
:1010D00080698007204602D0FFF7E7FF04E000F0B8
:1010E000C1F8204600F043F9257720680169C9431B
:1010F000490717D4C168C943490713D46FF00401E5
:101100000161022020772068806910F4407F20462A
:1011100002D0FFF7CAFF04E000F0A4F8204600F078
:1011200026F9257720680169C943090716D4C168E3
:10113000C943090712D46FF0080101610420207728
:101140002068C0698007204602D0FFF7AEFF04E0A8
:1011500000F088F8204600F00AF925772068016938
:10116000C943C90617D4C168C943C90613D46FF06F
:1011700010010161082020772068C06910F4407FC9
:10118000204602D0FFF791FF04E000F06BF8204604
:1011900000F0EDF8257720680169C943C90708D137
:1011A000C168C943C90704D1891E0161204600F006
:1011B000FBF820680169C943090609D4C168C9431D
:1011C000090605D46FF0800101612046FFF794FE07
:1011D00020680169C943490609D4C168C943490661
:1011E00005D46FF040010161204600F0DEF8206870
:1011F0000169C94389060BD4C168C943890607D46C
:101200006FF0200101612046BDE87040FFF775BE18
:1012100070BD000010B586B0044614216846FFF783
:1012200029F80D492068884214D10C480021026831
:1012300042F001020260006800F001000590012008
:1012400000900220CDE90101CDE903106946044870
:10125000FFF788FA06B010BD000C0040303802409D
:1012600000000240704770B5044690F83C000D46FF
:1012700001280DD0012684F83C60022084F83D004E
:1012800042B1042A18D0082A2AD00C2A4DD139E0BC
:10129000022070BD206800F077F92068816941F074
:1012A000080181612068816921F004018161206861
:1012B00081692A69114311E0206800F08DF92068E6
:1012C000816941F4006181612068816921F4806154
:1012D0008161206881692A6941EA0221816124E0F3
:1012E000206800F0A5F92068C16941F00801C161DA
:1012F0002068C16921F00401C1612068C1692A69BF
:10130000114311E0206800F0BFF92068C16941F481
:101310000061C1612068C16921F48061C1612068F8
:10132000C1692A6941EA0221C16184F83D60002057
:1013300084F83C0070BD10B5040003D094F83D0063
:1013400010B107E0012010BD002084F83C002046C9
:1013500000F00CF8022084F83D00211D206800F008
:10136000C1F8012084F83D00002010BD704770478F
:1013700010B504460068012200F0E6F8094920682B
:10138000884203D1416C41F4004141642068816886
:1013900001F00701062903D0016841F00101016055
:1013A000002010BD0000014070477047FEE70000BC
:1013B00010B58EB000240794089409940A940B94F5
:1013C0001C2168460C94FEF755FF1748154901602B
:1013D000A021C0E901144FF4FA61C0E9031484614B
:1013E000FFF7BEFD4FF48050079007A90E48FFF7A6
:1013F000F1FD0D48FFF79FFF0B940BA90A480C94D1
:10140000FFF77CFD602000903220CDE9010400222E
:10141000694605480494FFF726FF0348FFF7FAFEE4
:101420000EB010BD000C004010000020FEE7704719
:1014300070477047FFF754BA30B593B0342168460F
:10144000FEF718FF14210DA8FEF714FF1948002518
:10145000016841F080510160006800F080501290F6
:101460001548016841F4404101600068022400F41D
:101470004040129001200090000401908001CDE9CD
:10148000064008AA0420402182E81300CDE90B049D
:101490006846FFF78BFB0DA90F2081E831004FF460
:1014A000C050CDE9100501210DA8FFF7B5FA13B022
:1014B00030BD00004038024000700040054801681F
:1014C00041F47001016003494FF000608039086009
:1014D0007047000088ED00E00148FFF7E7BD00001D
:1014E0001000002030B50268134B144C984201D014
:1014F000A04203D122F070054A682A43984207D0DF
:10150000A04205D00E4CA04202D00E4CA04203D106
:1015100022F44074CA6822434C6922F080022243BC
:1015200002608A68C2620A688262984201D10969CF
:1015300001630121416130BD00000140000C004009
:10154000004001400048014010B501F01F03012197
:10155000046A99408C430462016A9A401143016213
:1015600010BD10B5846842EA032224F47F440A4384
:101570002243826010BD826822F070020A4342F06A
:10158000070181607047000030B5026A22F0010255
:101590000262026A4368846924F073050C682C4374
:1015A00022F002058A682A430A4DA8420BD122F094
:1015B0000805CA6823F440732A434D6922F00402E7
:1015C0001D438B692B434360846149684163026218
:1015D00030BD00000000014030B5026A22F0100268
:1015E0000262026A436884690D6824F4E64444EAAE
:1015F00005248D6822F0200242EA05120B4DA84214
:101600000ED1CD6822F0800242EA05124D6923F422
:10161000406343EA85038D6922F0400243EA850373
:101620004360846149688163026230BD000001400B
:1016300030B5026A22F480720262036A4268C469A9
:1016400023F4007324F073050C682C438D6843EA7F
:1016500005230C4DA8420ED1CD6823F4006343EA64
:1016600005234D6922F4405242EA05128D6923F4A4
:10167000806342EA05124260C4614968C163036243
:1016800030BD00000000014030B5026A22F48052F3
:101690000262046A4268C3690D6823F4E64343EAC0
:1016A00005238D6824F4005444EA0534064DA8420D
:1016B00004D14D6922F4804242EA85124260C3613E
:1016C00049680164046230BD0000014010B5036A3E
:1016D000046A24F001040462846924F0F00444EAFA
:1016E000021423F00A020A438461026210BD10B59D
:1016F000036A23F0100303628369046A23F47043CE
:1017000043EA023224F0A00343EA0111826101623C
:1017100010BDFEE70907090E002804DB00F1E020F8
:1017200080F80014704700F00F0000F1E02080F80E
:10173000141D704702E008C8121F08C1002AFAD120
:1017400070477047002001E001C1121F002AFBD141
:101750007047000008B5FFF7CBF8FFF76DFE0D48A6
:10176000016841F080010160016801F08001009191
:10177000016841F001010160006800F00100009083
:10178000FFF716FE00210448FFF7F2FD00F035F8E0
:10179000FCE7000030380240100000202DE9F04145
:1017A00004462DED068B1E4615460F461046DDF805
:1017B0003080FEF7F2FE41EC180B701BFEF7EDFED9
:1017C00041EC190B381BFEF7E8FE41EC1A0BA8EBB5
:1017D0000400FEF7E2FE53EC1A2BFEF76FFE53EC0B
:1017E000192BFEF7F9FD53EC182BFEF74EFDBDEC5F
:1017F000068BBDE8F041FEF7E1BE10B5002420469F
:1018000000F010F80A20FEF79BFF641CB42CF6DDF4
:10181000B424204600F006F80A20FEF791FF641E6B
:10182000F7D510BD08B5FA2300903222B42100206C
:10183000FFF7B4FF01490968486308BD10000020A4
:101840000000000000000000010203040607080970
:101850007018000800000020100000003417000875
:101860008018000810000020400400004417000801
:101870000100000010000000000000000024F4003F
:04000005080001C925
:00000001FF
